{
  "address": "0xEe79C85A7b5dC9FcEe143740018f71fb2BB0d6F2",
  "abi": [
    {
      "inputs": [
        {
          "internalType": "address",
          "name": "priceFeedAddrress",
          "type": "address"
        }
      ],
      "stateMutability": "nonpayable",
      "type": "constructor"
    },
    {
      "inputs": [],
      "name": "FundMe__NotOwner",
      "type": "error"
    },
    {
      "inputs": [],
      "name": "MINIMUN_USD",
      "outputs": [
        {
          "internalType": "uint256",
          "name": "",
          "type": "uint256"
        }
      ],
      "stateMutability": "view",
      "type": "function"
    },
    {
      "inputs": [],
      "name": "cheaperWithdraw",
      "outputs": [],
      "stateMutability": "payable",
      "type": "function"
    },
    {
      "inputs": [],
      "name": "fund",
      "outputs": [],
      "stateMutability": "payable",
      "type": "function"
    },
    {
      "inputs": [
        {
          "internalType": "address",
          "name": "funder",
          "type": "address"
        }
      ],
      "name": "getAmountFunded",
      "outputs": [
        {
          "internalType": "uint256",
          "name": "",
          "type": "uint256"
        }
      ],
      "stateMutability": "view",
      "type": "function"
    },
    {
      "inputs": [
        {
          "internalType": "uint256",
          "name": "funderIndex",
          "type": "uint256"
        }
      ],
      "name": "getFunder",
      "outputs": [
        {
          "internalType": "address",
          "name": "",
          "type": "address"
        }
      ],
      "stateMutability": "view",
      "type": "function"
    },
    {
      "inputs": [],
      "name": "getOwner",
      "outputs": [
        {
          "internalType": "address",
          "name": "",
          "type": "address"
        }
      ],
      "stateMutability": "view",
      "type": "function"
    },
    {
      "inputs": [],
      "name": "getPriceFeed",
      "outputs": [
        {
          "internalType": "contract AggregatorV3Interface",
          "name": "",
          "type": "address"
        }
      ],
      "stateMutability": "view",
      "type": "function"
    },
    {
      "inputs": [
        {
          "internalType": "uint256",
          "name": "",
          "type": "uint256"
        }
      ],
      "name": "s_funders",
      "outputs": [
        {
          "internalType": "address",
          "name": "",
          "type": "address"
        }
      ],
      "stateMutability": "view",
      "type": "function"
    },
    {
      "inputs": [],
      "name": "s_priceFeed",
      "outputs": [
        {
          "internalType": "contract AggregatorV3Interface",
          "name": "",
          "type": "address"
        }
      ],
      "stateMutability": "view",
      "type": "function"
    },
    {
      "inputs": [],
      "name": "withdraw",
      "outputs": [],
      "stateMutability": "nonpayable",
      "type": "function"
    }
  ],
  "transactionHash": "0x665f7f00eb6f33a1a5015603b6b38fc24487a78a42b0a8551a8893a30fadf879",
  "args": [
    "0x8A753747A1Fa494EC906cE90E9f37563A8AF630e"
  ],
  "numDeployments": 2,
  "solcInputHash": "62c242dc81e1b722c28b9a22a7ae2315",
  "bytecode": "0x60a06040523480156200001157600080fd5b50604051620013aa380380620013aa8339818101604052810190620000379190620000cd565b3373ffffffffffffffffffffffffffffffffffffffff1660808173ffffffffffffffffffffffffffffffffffffffff1660601b8152505080600260006101000a81548173ffffffffffffffffffffffffffffffffffffffff021916908373ffffffffffffffffffffffffffffffffffffffff1602179055505062000152565b600081519050620000c78162000138565b92915050565b600060208284031215620000e657620000e562000133565b5b6000620000f684828501620000b6565b91505092915050565b60006200010c8262000113565b9050919050565b600073ffffffffffffffffffffffffffffffffffffffff82169050919050565b600080fd5b6200014381620000ff565b81146200014f57600080fd5b50565b60805160601c61122b6200017f60003960008181610259015281816104da01526106ae015261122b6000f3fe6080604052600436106100915760003560e01c80639e87a5cd116100595780639e87a5cd1461016b578063a48b455514610196578063b60d4288146101d3578063be2693f0146101dd578063d7b4750c146101e757610091565b80630ec3b027146100965780632100f479146100c15780633ccfd60b146100ec57806354861af714610103578063893d20e814610140575b600080fd5b3480156100a257600080fd5b506100ab610224565b6040516100b89190610d1e565b60405180910390f35b3480156100cd57600080fd5b506100d661024a565b6040516100e39190610d79565b60405180910390f35b3480156100f857600080fd5b50610101610257565b005b34801561010f57600080fd5b5061012a60048036038101906101259190610bb0565b610497565b6040516101379190610d03565b60405180910390f35b34801561014c57600080fd5b506101556104d6565b6040516101629190610d03565b60405180910390f35b34801561017757600080fd5b506101806104fe565b60405161018d9190610d1e565b60405180910390f35b3480156101a257600080fd5b506101bd60048036038101906101b89190610b83565b610528565b6040516101ca9190610d79565b60405180910390f35b6101db610571565b005b6101e56106ac565b005b3480156101f357600080fd5b5061020e60048036038101906102099190610bb0565b610950565b60405161021b9190610d03565b60405180910390f35b600260009054906101000a900473ffffffffffffffffffffffffffffffffffffffff1681565b6802b5e3af16b188000081565b7f000000000000000000000000000000000000000000000000000000000000000073ffffffffffffffffffffffffffffffffffffffff163373ffffffffffffffffffffffffffffffffffffffff16146102dc576040517f579610db00000000000000000000000000000000000000000000000000000000815260040160405180910390fd5b60005b600080549050811015610387576000808281548110610301576103006110e1565b5b9060005260206000200160009054906101000a900473ffffffffffffffffffffffffffffffffffffffff1690506000600160008373ffffffffffffffffffffffffffffffffffffffff1673ffffffffffffffffffffffffffffffffffffffff1681526020019081526020016000208190555050808061037f9061103a565b9150506102df565b50600067ffffffffffffffff8111156103a3576103a2611110565b5b6040519080825280602002602001820160405280156103d15781602001602082028036833780820191505090505b50600090805190602001906103e7929190610a73565b5060003373ffffffffffffffffffffffffffffffffffffffff164760405161040e90610cee565b60006040518083038185875af1925050503d806000811461044b576040519150601f19603f3d011682016040523d82523d6000602084013e610450565b606091505b5050905080610494576040517f08c379a000000000000000000000000000000000000000000000000000000000815260040161048b90610d39565b60405180910390fd5b50565b600081815481106104a757600080fd5b906000526020600020016000915054906101000a900473ffffffffffffffffffffffffffffffffffffffff1681565b60007f0000000000000000000000000000000000000000000000000000000000000000905090565b6000600260009054906101000a900473ffffffffffffffffffffffffffffffffffffffff16905090565b6000600160008373ffffffffffffffffffffffffffffffffffffffff1673ffffffffffffffffffffffffffffffffffffffff168152602001908152602001600020549050919050565b6802b5e3af16b18800006105b0600260009054906101000a900473ffffffffffffffffffffffffffffffffffffffff163461099790919063ffffffff16565b10156105f1576040517f08c379a00000000000000000000000000000000000000000000000000000000081526004016105e890610d59565b60405180910390fd5b6000339080600181540180825580915050600190039060005260206000200160009091909190916101000a81548173ffffffffffffffffffffffffffffffffffffffff021916908373ffffffffffffffffffffffffffffffffffffffff16021790555034600160003373ffffffffffffffffffffffffffffffffffffffff1673ffffffffffffffffffffffffffffffffffffffff16815260200190815260200160002060008282546106a39190610db0565b92505081905550565b7f000000000000000000000000000000000000000000000000000000000000000073ffffffffffffffffffffffffffffffffffffffff163373ffffffffffffffffffffffffffffffffffffffff1614610731576040517f579610db00000000000000000000000000000000000000000000000000000000815260040160405180910390fd5b6000808054806020026020016040519081016040528092919081815260200182805480156107b457602002820191906000526020600020905b8160009054906101000a900473ffffffffffffffffffffffffffffffffffffffff1673ffffffffffffffffffffffffffffffffffffffff168152602001906001019080831161076a575b5050505050905060005b815181101561083f5760008282815181106107dc576107db6110e1565b5b602002602001015190506000600160008373ffffffffffffffffffffffffffffffffffffffff1673ffffffffffffffffffffffffffffffffffffffff168152602001908152602001600020819055505080806108379061103a565b9150506107be565b50600067ffffffffffffffff81111561085b5761085a611110565b5b6040519080825280602002602001820160405280156108895781602001602082028036833780820191505090505b506000908051906020019061089f929190610a73565b5060003373ffffffffffffffffffffffffffffffffffffffff16476040516108c690610cee565b60006040518083038185875af1925050503d8060008114610903576040519150601f19603f3d011682016040523d82523d6000602084013e610908565b606091505b505090508061094c576040517f08c379a000000000000000000000000000000000000000000000000000000000815260040161094390610d39565b60405180910390fd5b5050565b6000808281548110610965576109646110e1565b5b9060005260206000200160009054906101000a900473ffffffffffffffffffffffffffffffffffffffff169050919050565b6000806109a3836109d3565b90506000670de0b6b3a764000085836109bc9190610f4e565b6109c69190610e06565b9050809250505092915050565b6000808273ffffffffffffffffffffffffffffffffffffffff1663feaf968c6040518163ffffffff1660e01b815260040160a06040518083038186803b158015610a1c57600080fd5b505afa158015610a30573d6000803e3d6000fd5b505050506040513d601f19601f82011682018060405250810190610a549190610bdd565b5050509150506402540be40081610a6b9190610e37565b915050919050565b828054828255906000526020600020908101928215610aec579160200282015b82811115610aeb5782518260006101000a81548173ffffffffffffffffffffffffffffffffffffffff021916908373ffffffffffffffffffffffffffffffffffffffff16021790555091602001919060010190610a93565b5b509050610af99190610afd565b5090565b5b80821115610b16576000816000905550600101610afe565b5090565b600081359050610b2981611199565b92915050565b600081519050610b3e816111b0565b92915050565b600081359050610b53816111c7565b92915050565b600081519050610b68816111c7565b92915050565b600081519050610b7d816111de565b92915050565b600060208284031215610b9957610b9861113f565b5b6000610ba784828501610b1a565b91505092915050565b600060208284031215610bc657610bc561113f565b5b6000610bd484828501610b44565b91505092915050565b600080600080600060a08688031215610bf957610bf861113f565b5b6000610c0788828901610b6e565b9550506020610c1888828901610b2f565b9450506040610c2988828901610b59565b9350506060610c3a88828901610b59565b9250506080610c4b88828901610b6e565b9150509295509295909350565b610c6181610fa8565b82525050565b610c7081611004565b82525050565b6000610c83600b83610d9f565b9150610c8e82611144565b602082019050919050565b6000610ca6601283610d9f565b9150610cb18261116d565b602082019050919050565b6000610cc9600083610d94565b9150610cd482611196565b600082019050919050565b610ce881610fe4565b82525050565b6000610cf982610cbc565b9150819050919050565b6000602082019050610d186000830184610c58565b92915050565b6000602082019050610d336000830184610c67565b92915050565b60006020820190508181036000830152610d5281610c76565b9050919050565b60006020820190508181036000830152610d7281610c99565b9050919050565b6000602082019050610d8e6000830184610cdf565b92915050565b600081905092915050565b600082825260208201905092915050565b6000610dbb82610fe4565b9150610dc683610fe4565b9250827fffffffffffffffffffffffffffffffffffffffffffffffffffffffffffffffff03821115610dfb57610dfa611083565b5b828201905092915050565b6000610e1182610fe4565b9150610e1c83610fe4565b925082610e2c57610e2b6110b2565b5b828204905092915050565b6000610e4282610fba565b9150610e4d83610fba565b9250827f7fffffffffffffffffffffffffffffffffffffffffffffffffffffffffffffff0482116000841360008413161615610e8c57610e8b611083565b5b817f80000000000000000000000000000000000000000000000000000000000000000583126000841260008413161615610ec957610ec8611083565b5b827f80000000000000000000000000000000000000000000000000000000000000000582126000841360008412161615610f0657610f05611083565b5b827f7fffffffffffffffffffffffffffffffffffffffffffffffffffffffffffffff0582126000841260008412161615610f4357610f42611083565b5b828202905092915050565b6000610f5982610fe4565b9150610f6483610fe4565b9250817fffffffffffffffffffffffffffffffffffffffffffffffffffffffffffffffff0483118215151615610f9d57610f9c611083565b5b828202905092915050565b6000610fb382610fc4565b9050919050565b6000819050919050565b600073ffffffffffffffffffffffffffffffffffffffff82169050919050565b6000819050919050565b600069ffffffffffffffffffff82169050919050565b600061100f82611016565b9050919050565b600061102182611028565b9050919050565b600061103382610fc4565b9050919050565b600061104582610fe4565b91507fffffffffffffffffffffffffffffffffffffffffffffffffffffffffffffffff82141561107857611077611083565b5b600182019050919050565b7f4e487b7100000000000000000000000000000000000000000000000000000000600052601160045260246000fd5b7f4e487b7100000000000000000000000000000000000000000000000000000000600052601260045260246000fd5b7f4e487b7100000000000000000000000000000000000000000000000000000000600052603260045260246000fd5b7f4e487b7100000000000000000000000000000000000000000000000000000000600052604160045260246000fd5b600080fd5b7f43616c6c206661696c6564000000000000000000000000000000000000000000600082015250565b7f4469646e27742073656e6420656e6f7567680000000000000000000000000000600082015250565b50565b6111a281610fa8565b81146111ad57600080fd5b50565b6111b981610fba565b81146111c457600080fd5b50565b6111d081610fe4565b81146111db57600080fd5b50565b6111e781610fee565b81146111f257600080fd5b5056fea264697066735822122063b986f6db8f716cd57a9478fee596fda9a3278acb101593716ee27002d4cf6264736f6c63430008070033",
  "devdoc": {
    "author": "Boris Ryjkov",
    "details": "This implements price feeds as our library",
    "kind": "dev",
    "methods": {},
    "title": "A contract for crowd funding",
    "version": 1
  },
  "userdoc": {
    "kind": "user",
    "methods": {},
    "notice": "This contract is to demo a sample funding contract",
    "version": 1
  },
  "storageLayout": {
    "storage": [
      {
        "astId": 59,
        "contract": "contracts/FundMe.sol:FundMe",
        "label": "s_funders",
        "offset": 0,
        "slot": "0",
        "type": "t_array(t_address)dyn_storage"
      },
      {
        "astId": 63,
        "contract": "contracts/FundMe.sol:FundMe",
        "label": "s_addressToAmountFunded",
        "offset": 0,
        "slot": "1",
        "type": "t_mapping(t_address,t_uint256)"
      },
      {
        "astId": 73,
        "contract": "contracts/FundMe.sol:FundMe",
        "label": "s_priceFeed",
        "offset": 0,
        "slot": "2",
        "type": "t_contract(AggregatorV3Interface)45"
      }
    ],
    "types": {
      "t_address": {
        "encoding": "inplace",
        "label": "address",
        "numberOfBytes": "20"
      },
      "t_array(t_address)dyn_storage": {
        "base": "t_address",
        "encoding": "dynamic_array",
        "label": "address[]",
        "numberOfBytes": "32"
      },
      "t_contract(AggregatorV3Interface)45": {
        "encoding": "inplace",
        "label": "contract AggregatorV3Interface",
        "numberOfBytes": "20"
      },
      "t_mapping(t_address,t_uint256)": {
        "encoding": "mapping",
        "key": "t_address",
        "label": "mapping(address => uint256)",
        "numberOfBytes": "32",
        "value": "t_uint256"
      },
      "t_uint256": {
        "encoding": "inplace",
        "label": "uint256",
        "numberOfBytes": "32"
      }
    }
  }
}